{"abi":[{"type":"constructor","inputs":[],"stateMutability":"nonpayable"},{"type":"function","name":"approve","inputs":[{"name":"to","type":"address","internalType":"address"},{"name":"tokenId","type":"uint256","internalType":"uint256"}],"outputs":[],"stateMutability":"nonpayable"},{"type":"function","name":"balanceOf","inputs":[{"name":"owner","type":"address","internalType":"address"}],"outputs":[{"name":"","type":"uint256","internalType":"uint256"}],"stateMutability":"view"},{"type":"function","name":"getApproved","inputs":[{"name":"tokenId","type":"uint256","internalType":"uint256"}],"outputs":[{"name":"","type":"address","internalType":"address"}],"stateMutability":"view"},{"type":"function","name":"isApprovedForAll","inputs":[{"name":"owner","type":"address","internalType":"address"},{"name":"operator","type":"address","internalType":"address"}],"outputs":[{"name":"","type":"bool","internalType":"bool"}],"stateMutability":"view"},{"type":"function","name":"mintNFT","inputs":[{"name":"to","type":"address","internalType":"address"}],"outputs":[],"stateMutability":"nonpayable"},{"type":"function","name":"name","inputs":[],"outputs":[{"name":"","type":"string","internalType":"string"}],"stateMutability":"view"},{"type":"function","name":"owner","inputs":[],"outputs":[{"name":"","type":"address","internalType":"address"}],"stateMutability":"view"},{"type":"function","name":"ownerOf","inputs":[{"name":"tokenId","type":"uint256","internalType":"uint256"}],"outputs":[{"name":"","type":"address","internalType":"address"}],"stateMutability":"view"},{"type":"function","name":"renounceOwnership","inputs":[],"outputs":[],"stateMutability":"nonpayable"},{"type":"function","name":"safeTransferFrom","inputs":[{"name":"from","type":"address","internalType":"address"},{"name":"to","type":"address","internalType":"address"},{"name":"tokenId","type":"uint256","internalType":"uint256"}],"outputs":[],"stateMutability":"nonpayable"},{"type":"function","name":"safeTransferFrom","inputs":[{"name":"from","type":"address","internalType":"address"},{"name":"to","type":"address","internalType":"address"},{"name":"tokenId","type":"uint256","internalType":"uint256"},{"name":"data","type":"bytes","internalType":"bytes"}],"outputs":[],"stateMutability":"nonpayable"},{"type":"function","name":"setApprovalForAll","inputs":[{"name":"operator","type":"address","internalType":"address"},{"name":"approved","type":"bool","internalType":"bool"}],"outputs":[],"stateMutability":"nonpayable"},{"type":"function","name":"supportsInterface","inputs":[{"name":"interfaceId","type":"bytes4","internalType":"bytes4"}],"outputs":[{"name":"","type":"bool","internalType":"bool"}],"stateMutability":"view"},{"type":"function","name":"symbol","inputs":[],"outputs":[{"name":"","type":"string","internalType":"string"}],"stateMutability":"view"},{"type":"function","name":"tokenURI","inputs":[{"name":"tokenId","type":"uint256","internalType":"uint256"}],"outputs":[{"name":"","type":"string","internalType":"string"}],"stateMutability":"view"},{"type":"function","name":"transferFrom","inputs":[{"name":"from","type":"address","internalType":"address"},{"name":"to","type":"address","internalType":"address"},{"name":"tokenId","type":"uint256","internalType":"uint256"}],"outputs":[],"stateMutability":"nonpayable"},{"type":"function","name":"transferOwnership","inputs":[{"name":"newOwner","type":"address","internalType":"address"}],"outputs":[],"stateMutability":"nonpayable"},{"type":"event","name":"Approval","inputs":[{"name":"owner","type":"address","indexed":true,"internalType":"address"},{"name":"approved","type":"address","indexed":true,"internalType":"address"},{"name":"tokenId","type":"uint256","indexed":true,"internalType":"uint256"}],"anonymous":false},{"type":"event","name":"ApprovalForAll","inputs":[{"name":"owner","type":"address","indexed":true,"internalType":"address"},{"name":"operator","type":"address","indexed":true,"internalType":"address"},{"name":"approved","type":"bool","indexed":false,"internalType":"bool"}],"anonymous":false},{"type":"event","name":"OwnershipTransferred","inputs":[{"name":"previousOwner","type":"address","indexed":true,"internalType":"address"},{"name":"newOwner","type":"address","indexed":true,"internalType":"address"}],"anonymous":false},{"type":"event","name":"Transfer","inputs":[{"name":"from","type":"address","indexed":true,"internalType":"address"},{"name":"to","type":"address","indexed":true,"internalType":"address"},{"name":"tokenId","type":"uint256","indexed":true,"internalType":"uint256"}],"anonymous":false},{"type":"error","name":"ERC721IncorrectOwner","inputs":[{"name":"sender","type":"address","internalType":"address"},{"name":"tokenId","type":"uint256","internalType":"uint256"},{"name":"owner","type":"address","internalType":"address"}]},{"type":"error","name":"ERC721InsufficientApproval","inputs":[{"name":"operator","type":"address","internalType":"address"},{"name":"tokenId","type":"uint256","internalType":"uint256"}]},{"type":"error","name":"ERC721InvalidApprover","inputs":[{"name":"approver","type":"address","internalType":"address"}]},{"type":"error","name":"ERC721InvalidOperator","inputs":[{"name":"operator","type":"address","internalType":"address"}]},{"type":"error","name":"ERC721InvalidOwner","inputs":[{"name":"owner","type":"address","internalType":"address"}]},{"type":"error","name":"ERC721InvalidReceiver","inputs":[{"name":"receiver","type":"address","internalType":"address"}]},{"type":"error","name":"ERC721InvalidSender","inputs":[{"name":"sender","type":"address","internalType":"address"}]},{"type":"error","name":"ERC721NonexistentToken","inputs":[{"name":"tokenId","type":"uint256","internalType":"uint256"}]},{"type":"error","name":"OwnableInvalidOwner","inputs":[{"name":"owner","type":"address","internalType":"address"}]},{"type":"error","name":"OwnableUnauthorizedAccount","inputs":[{"name":"account","type":"address","internalType":"address"}]}],"bytecode":{"object":"0x60806040523480156200001157600080fd5b50336040518060400160405280600a815260200169135e519a5c9cdd13919560b21b8152506040518060400160405280600381526020016226a32760e91b8152508160009081620000639190620001ad565b506001620000728282620001ad565b5050506001600160a01b038116620000a457604051631e4fbdf760e01b81526000600482015260240160405180910390fd5b620000af81620000b6565b5062000279565b600680546001600160a01b038381166001600160a01b0319831681179093556040519116919082907f8be0079c531659141344cd1fd0a4f28419497f9722a3daafe3b4186f6b6457e090600090a35050565b634e487b7160e01b600052604160045260246000fd5b600181811c908216806200013357607f821691505b6020821081036200015457634e487b7160e01b600052602260045260246000fd5b50919050565b601f821115620001a857600081815260208120601f850160051c81016020861015620001835750805b601f850160051c820191505b81811015620001a4578281556001016200018f565b5050505b505050565b81516001600160401b03811115620001c957620001c962000108565b620001e181620001da84546200011e565b846200015a565b602080601f831160018114620002195760008415620002005750858301515b600019600386901b1c1916600185901b178555620001a4565b600085815260208120601f198616915b828110156200024a5788860151825594840194600190910190840162000229565b5085821015620002695787850151600019600388901b60f8161c191681555b5050505050600190811b01905550565b61110c80620002896000396000f3fe608060405234801561001057600080fd5b506004361061010b5760003560e01c806370a08231116100a2578063a22cb46511610071578063a22cb4651461021b578063b88d4fde1461022e578063c87b56dd14610241578063e985e9c514610254578063f2fde38b1461026757600080fd5b806370a08231146101d9578063715018a6146101fa5780638da5cb5b1461020257806395d89b411461021357600080fd5b806323b872dd116100de57806323b872dd1461018d57806342842e0e146101a057806354ba0f27146101b35780636352211e146101c657600080fd5b806301ffc9a71461011057806306fdde0314610138578063081812fc1461014d578063095ea7b314610178575b600080fd5b61012361011e366004610d55565b61027a565b60405190151581526020015b60405180910390f35b6101406102cc565b60405161012f9190610dc2565b61016061015b366004610dd5565b61035e565b6040516001600160a01b03909116815260200161012f565b61018b610186366004610e0a565b610387565b005b61018b61019b366004610e34565b610396565b61018b6101ae366004610e34565b610426565b61018b6101c1366004610e70565b610446565b6101606101d4366004610dd5565b61046f565b6101ec6101e7366004610e70565b61047a565b60405190815260200161012f565b61018b6104c2565b6006546001600160a01b0316610160565b6101406104d6565b61018b610229366004610e8b565b6104e5565b61018b61023c366004610edd565b6104f0565b61014061024f366004610dd5565b610507565b610123610262366004610fb9565b61057c565b61018b610275366004610e70565b6105aa565b60006001600160e01b031982166380ac58cd60e01b14806102ab57506001600160e01b03198216635b5e139f60e01b145b806102c657506301ffc9a760e01b6001600160e01b03198316145b92915050565b6060600080546102db90610fec565b80601f016020809104026020016040519081016040528092919081815260200182805461030790610fec565b80156103545780601f1061032957610100808354040283529160200191610354565b820191906000526020600020905b81548152906001019060200180831161033757829003601f168201915b5050505050905090565b6000610369826105e8565b506000828152600460205260409020546001600160a01b03166102c6565b610392828233610621565b5050565b6001600160a01b0382166103c557604051633250574960e11b8152600060048201526024015b60405180910390fd5b60006103d283833361062e565b9050836001600160a01b0316816001600160a01b031614610420576040516364283d7b60e01b81526001600160a01b03808616600483015260248201849052821660448201526064016103bc565b50505050565b610441838383604051806020016040528060008152506104f0565b505050565b61044e610727565b600780546000918261045f83611026565b9190505590506103928282610754565b60006102c6826105e8565b60006001600160a01b0382166104a6576040516322718ad960e21b8152600060048201526024016103bc565b506001600160a01b031660009081526003602052604090205490565b6104ca610727565b6104d4600061076e565b565b6060600180546102db90610fec565b6103923383836107c0565b6104fb848484610396565b6104208484848461085f565b6060610512826105e8565b50600061052a60408051602081019091526000815290565b9050600081511161054a5760405180602001604052806000815250610575565b8061055484610988565b60405160200161056592919061104d565b6040516020818303038152906040525b9392505050565b6001600160a01b03918216600090815260056020908152604080832093909416825291909152205460ff1690565b6105b2610727565b6001600160a01b0381166105dc57604051631e4fbdf760e01b8152600060048201526024016103bc565b6105e58161076e565b50565b6000818152600260205260408120546001600160a01b0316806102c657604051637e27328960e01b8152600481018490526024016103bc565b6104418383836001610a1b565b6000828152600260205260408120546001600160a01b039081169083161561065b5761065b818486610b21565b6001600160a01b0381161561069957610678600085600080610a1b565b6001600160a01b038116600090815260036020526040902080546000190190555b6001600160a01b038516156106c8576001600160a01b0385166000908152600360205260409020805460010190555b60008481526002602052604080822080546001600160a01b0319166001600160a01b0389811691821790925591518793918516917fddf252ad1be2c89b69c2b068fc378daa952ba7f163c4a11628f55a4df523b3ef91a4949350505050565b6006546001600160a01b031633146104d45760405163118cdaa760e01b81523360048201526024016103bc565b610392828260405180602001604052806000815250610b85565b600680546001600160a01b038381166001600160a01b0319831681179093556040519116919082907f8be0079c531659141344cd1fd0a4f28419497f9722a3daafe3b4186f6b6457e090600090a35050565b6001600160a01b0382166107f257604051630b61174360e31b81526001600160a01b03831660048201526024016103bc565b6001600160a01b03838116600081815260056020908152604080832094871680845294825291829020805460ff191686151590811790915591519182527f17307eab39ab6107e8899845ad3d59bd9653f200f220920489ca2b5937696c31910160405180910390a3505050565b6001600160a01b0383163b1561042057604051630a85bd0160e11b81526001600160a01b0384169063150b7a02906108a190339088908790879060040161107c565b6020604051808303816000875af19250505080156108dc575060408051601f3d908101601f191682019092526108d9918101906110b9565b60015b610945573d80801561090a576040519150601f19603f3d011682016040523d82523d6000602084013e61090f565b606091505b50805160000361093d57604051633250574960e11b81526001600160a01b03851660048201526024016103bc565b805181602001fd5b6001600160e01b03198116630a85bd0160e11b1461098157604051633250574960e11b81526001600160a01b03851660048201526024016103bc565b5050505050565b6060600061099583610b9c565b600101905060008167ffffffffffffffff8111156109b5576109b5610ec7565b6040519080825280601f01601f1916602001820160405280156109df576020820181803683370190505b5090508181016020015b600019016f181899199a1a9b1b9c1cb0b131b232b360811b600a86061a8153600a85049450846109e957509392505050565b8080610a2f57506001600160a01b03821615155b15610af1576000610a3f846105e8565b90506001600160a01b03831615801590610a6b5750826001600160a01b0316816001600160a01b031614155b8015610a7e5750610a7c818461057c565b155b15610aa75760405163a9fbf51f60e01b81526001600160a01b03841660048201526024016103bc565b8115610aef5783856001600160a01b0316826001600160a01b03167f8c5be1e5ebec7d5bd14f71427d1e84f3dd0314c0f7b2291e5b200ac8c7c3b92560405160405180910390a45b505b5050600090815260046020526040902080546001600160a01b0319166001600160a01b0392909216919091179055565b610b2c838383610c74565b610441576001600160a01b038316610b5a57604051637e27328960e01b8152600481018290526024016103bc565b60405163177e802f60e01b81526001600160a01b0383166004820152602481018290526044016103bc565b610b8f8383610cda565b610441600084848461085f565b60008072184f03e93ff9f4daa797ed6e38ed64bf6a1f0160401b8310610bdb5772184f03e93ff9f4daa797ed6e38ed64bf6a1f0160401b830492506040015b6d04ee2d6d415b85acef81000000008310610c07576d04ee2d6d415b85acef8100000000830492506020015b662386f26fc100008310610c2557662386f26fc10000830492506010015b6305f5e1008310610c3d576305f5e100830492506008015b6127108310610c5157612710830492506004015b60648310610c63576064830492506002015b600a83106102c65760010192915050565b60006001600160a01b03831615801590610cd25750826001600160a01b0316846001600160a01b03161480610cae5750610cae848461057c565b80610cd257506000828152600460205260409020546001600160a01b038481169116145b949350505050565b6001600160a01b038216610d0457604051633250574960e11b8152600060048201526024016103bc565b6000610d128383600061062e565b90506001600160a01b03811615610441576040516339e3563760e11b8152600060048201526024016103bc565b6001600160e01b0319811681146105e557600080fd5b600060208284031215610d6757600080fd5b813561057581610d3f565b60005b83811015610d8d578181015183820152602001610d75565b50506000910152565b60008151808452610dae816020860160208601610d72565b601f01601f19169290920160200192915050565b6020815260006105756020830184610d96565b600060208284031215610de757600080fd5b5035919050565b80356001600160a01b0381168114610e0557600080fd5b919050565b60008060408385031215610e1d57600080fd5b610e2683610dee565b946020939093013593505050565b600080600060608486031215610e4957600080fd5b610e5284610dee565b9250610e6060208501610dee565b9150604084013590509250925092565b600060208284031215610e8257600080fd5b61057582610dee565b60008060408385031215610e9e57600080fd5b610ea783610dee565b915060208301358015158114610ebc57600080fd5b809150509250929050565b634e487b7160e01b600052604160045260246000fd5b60008060008060808587031215610ef357600080fd5b610efc85610dee565b9350610f0a60208601610dee565b925060408501359150606085013567ffffffffffffffff80821115610f2e57600080fd5b818701915087601f830112610f4257600080fd5b813581811115610f5457610f54610ec7565b604051601f8201601f19908116603f01168101908382118183101715610f7c57610f7c610ec7565b816040528281528a6020848701011115610f9557600080fd5b82602086016020830137600060208483010152809550505050505092959194509250565b60008060408385031215610fcc57600080fd5b610fd583610dee565b9150610fe360208401610dee565b90509250929050565b600181811c9082168061100057607f821691505b60208210810361102057634e487b7160e01b600052602260045260246000fd5b50919050565b60006001820161104657634e487b7160e01b600052601160045260246000fd5b5060010190565b6000835161105f818460208801610d72565b835190830190611073818360208801610d72565b01949350505050565b6001600160a01b03858116825284166020820152604081018390526080606082018190526000906110af90830184610d96565b9695505050505050565b6000602082840312156110cb57600080fd5b815161057581610d3f56fea26469706673582212208ce77f3e1caf541904260b65ea926e2bb06c5e66d7c5261e045dd932aa00f17e64736f6c63430008150033","linkReferences":{}},"methodIdentifiers":{"approve(address,uint256)":"095ea7b3","balanceOf(address)":"70a08231","getApproved(uint256)":"081812fc","isApprovedForAll(address,address)":"e985e9c5","mintNFT(address)":"54ba0f27","name()":"06fdde03","owner()":"8da5cb5b","ownerOf(uint256)":"6352211e","renounceOwnership()":"715018a6","safeTransferFrom(address,address,uint256)":"42842e0e","safeTransferFrom(address,address,uint256,bytes)":"b88d4fde","setApprovalForAll(address,bool)":"a22cb465","supportsInterface(bytes4)":"01ffc9a7","symbol()":"95d89b41","tokenURI(uint256)":"c87b56dd","transferFrom(address,address,uint256)":"23b872dd","transferOwnership(address)":"f2fde38b"},"id":12}